{"abi":[{"type":"constructor","inputs":[{"name":"_dltAddress","type":"address","internalType":"address"},{"name":"_usdcAddress","type":"address","internalType":"address"}],"stateMutability":"nonpayable"},{"type":"function","name":"acceptOffer","inputs":[{"name":"offerId","type":"uint256","internalType":"uint256"}],"outputs":[],"stateMutability":"nonpayable"},{"type":"function","name":"buyERC6960","inputs":[{"name":"listingId","type":"uint256","internalType":"uint256"},{"name":"amount","type":"uint256","internalType":"uint256"}],"outputs":[],"stateMutability":"nonpayable"},{"type":"function","name":"cancelListing","inputs":[{"name":"listingId","type":"uint256","internalType":"uint256"}],"outputs":[],"stateMutability":"nonpayable"},{"type":"function","name":"cancelOffer","inputs":[{"name":"offerId","type":"uint256","internalType":"uint256"}],"outputs":[],"stateMutability":"nonpayable"},{"type":"function","name":"dlt","inputs":[],"outputs":[{"name":"","type":"address","internalType":"contract IDLT"}],"stateMutability":"view"},{"type":"function","name":"erc6960Count","inputs":[],"outputs":[{"name":"","type":"uint256","internalType":"uint256"}],"stateMutability":"view"},{"type":"function","name":"erc6960Listings","inputs":[{"name":"","type":"uint256","internalType":"uint256"}],"outputs":[{"name":"seller","type":"address","internalType":"address"},{"name":"mainId","type":"uint256","internalType":"uint256"},{"name":"subId","type":"uint256","internalType":"uint256"},{"name":"amount","type":"uint256","internalType":"uint256"},{"name":"pricePerUnit","type":"uint256","internalType":"uint256"},{"name":"minPurchaseAmount","type":"uint256","internalType":"uint256"},{"name":"paymentToken","type":"uint8","internalType":"enum MizuMarketplace.PaymentToken"},{"name":"active","type":"bool","internalType":"bool"}],"stateMutability":"view"},{"type":"function","name":"getActiveOffers","inputs":[{"name":"listingId","type":"uint256","internalType":"uint256"}],"outputs":[{"name":"","type":"uint256[]","internalType":"uint256[]"}],"stateMutability":"view"},{"type":"function","name":"getListingOffers","inputs":[{"name":"listingId","type":"uint256","internalType":"uint256"}],"outputs":[{"name":"","type":"uint256[]","internalType":"uint256[]"}],"stateMutability":"view"},{"type":"function","name":"listERC6960","inputs":[{"name":"mainId","type":"uint256","internalType":"uint256"},{"name":"subId","type":"uint256","internalType":"uint256"},{"name":"amount","type":"uint256","internalType":"uint256"},{"name":"pricePerUnit","type":"uint256","internalType":"uint256"},{"name":"minPurchaseAmount","type":"uint256","internalType":"uint256"}],"outputs":[{"name":"","type":"uint256","internalType":"uint256"}],"stateMutability":"nonpayable"},{"type":"function","name":"listingOffers","inputs":[{"name":"","type":"uint256","internalType":"uint256"},{"name":"","type":"uint256","internalType":"uint256"}],"outputs":[{"name":"","type":"uint256","internalType":"uint256"}],"stateMutability":"view"},{"type":"function","name":"makeOffer","inputs":[{"name":"listingId","type":"uint256","internalType":"uint256"},{"name":"amount","type":"uint256","internalType":"uint256"},{"name":"pricePerUnit","type":"uint256","internalType":"uint256"},{"name":"duration","type":"uint256","internalType":"uint256"}],"outputs":[],"stateMutability":"nonpayable"},{"type":"function","name":"offerCount","inputs":[],"outputs":[{"name":"","type":"uint256","internalType":"uint256"}],"stateMutability":"view"},{"type":"function","name":"offers","inputs":[{"name":"","type":"uint256","internalType":"uint256"}],"outputs":[{"name":"buyer","type":"address","internalType":"address"},{"name":"listingId","type":"uint256","internalType":"uint256"},{"name":"amount","type":"uint256","internalType":"uint256"},{"name":"pricePerUnit","type":"uint256","internalType":"uint256"},{"name":"expirationTime","type":"uint256","internalType":"uint256"},{"name":"active","type":"bool","internalType":"bool"}],"stateMutability":"view"},{"type":"function","name":"owner","inputs":[],"outputs":[{"name":"","type":"address","internalType":"address"}],"stateMutability":"view"},{"type":"function","name":"redeemERC721","inputs":[{"name":"tokenId","type":"uint256","internalType":"uint256"}],"outputs":[],"stateMutability":"nonpayable"},{"type":"function","name":"renounceOwnership","inputs":[],"outputs":[],"stateMutability":"nonpayable"},{"type":"function","name":"transferOwnership","inputs":[{"name":"newOwner","type":"address","internalType":"address"}],"outputs":[],"stateMutability":"nonpayable"},{"type":"function","name":"usdc","inputs":[],"outputs":[{"name":"","type":"address","internalType":"contract IERC20"}],"stateMutability":"view"},{"type":"function","name":"wrapERC721","inputs":[{"name":"nft","type":"address","internalType":"address"},{"name":"tokenId","type":"uint256","internalType":"uint256"},{"name":"fragments","type":"uint256","internalType":"uint256"}],"outputs":[],"stateMutability":"nonpayable"},{"type":"function","name":"wrappedNFTs","inputs":[{"name":"","type":"uint256","internalType":"uint256"}],"outputs":[{"name":"nftContract","type":"address","internalType":"address"},{"name":"tokenId","type":"uint256","internalType":"uint256"},{"name":"totalFragments","type":"uint256","internalType":"uint256"},{"name":"isWrapped","type":"bool","internalType":"bool"}],"stateMutability":"view"},{"type":"event","name":"FragmentsListed","inputs":[{"name":"listingId","type":"uint256","indexed":true,"internalType":"uint256"},{"name":"seller","type":"address","indexed":true,"internalType":"address"},{"name":"mainId","type":"uint256","indexed":true,"internalType":"uint256"},{"name":"subId","type":"uint256","indexed":false,"internalType":"uint256"},{"name":"amount","type":"uint256","indexed":false,"internalType":"uint256"},{"name":"pricePerUnit","type":"uint256","indexed":false,"internalType":"uint256"}],"anonymous":false},{"type":"event","name":"FragmentsPurchased","inputs":[{"name":"listingId","type":"uint256","indexed":true,"internalType":"uint256"},{"name":"buyer","type":"address","indexed":true,"internalType":"address"},{"name":"seller","type":"address","indexed":true,"internalType":"address"},{"name":"mainId","type":"uint256","indexed":false,"internalType":"uint256"},{"name":"subId","type":"uint256","indexed":false,"internalType":"uint256"},{"name":"amount","type":"uint256","indexed":false,"internalType":"uint256"},{"name":"totalPrice","type":"uint256","indexed":false,"internalType":"uint256"}],"anonymous":false},{"type":"event","name":"ListingCancelled","inputs":[{"name":"listingId","type":"uint256","indexed":true,"internalType":"uint256"},{"name":"seller","type":"address","indexed":true,"internalType":"address"}],"anonymous":false},{"type":"event","name":"NFTRedeemed","inputs":[{"name":"nftContract","type":"address","indexed":true,"internalType":"address"},{"name":"tokenId","type":"uint256","indexed":true,"internalType":"uint256"},{"name":"redeemer","type":"address","indexed":true,"internalType":"address"}],"anonymous":false},{"type":"event","name":"NFTWrapped","inputs":[{"name":"nftContract","type":"address","indexed":true,"internalType":"address"},{"name":"tokenId","type":"uint256","indexed":true,"internalType":"uint256"},{"name":"owner","type":"address","indexed":true,"internalType":"address"},{"name":"fragments","type":"uint256","indexed":false,"internalType":"uint256"}],"anonymous":false},{"type":"event","name":"OfferAccepted","inputs":[{"name":"listingId","type":"uint256","indexed":true,"internalType":"uint256"},{"name":"offerId","type":"uint256","indexed":true,"internalType":"uint256"},{"name":"seller","type":"address","indexed":true,"internalType":"address"},{"name":"buyer","type":"address","indexed":false,"internalType":"address"},{"name":"amount","type":"uint256","indexed":false,"internalType":"uint256"},{"name":"totalPrice","type":"uint256","indexed":false,"internalType":"uint256"}],"anonymous":false},{"type":"event","name":"OfferCancelled","inputs":[{"name":"listingId","type":"uint256","indexed":true,"internalType":"uint256"},{"name":"offerId","type":"uint256","indexed":true,"internalType":"uint256"},{"name":"buyer","type":"address","indexed":true,"internalType":"address"}],"anonymous":false},{"type":"event","name":"OfferCreated","inputs":[{"name":"listingId","type":"uint256","indexed":true,"internalType":"uint256"},{"name":"offerId","type":"uint256","indexed":true,"internalType":"uint256"},{"name":"buyer","type":"address","indexed":true,"internalType":"address"},{"name":"amount","type":"uint256","indexed":false,"internalType":"uint256"},{"name":"pricePerUnit","type":"uint256","indexed":false,"internalType":"uint256"},{"name":"expirationTime","type":"uint256","indexed":false,"internalType":"uint256"}],"anonymous":false},{"type":"event","name":"OwnershipTransferred","inputs":[{"name":"previousOwner","type":"address","indexed":true,"internalType":"address"},{"name":"newOwner","type":"address","indexed":true,"internalType":"address"}],"anonymous":false},{"type":"error","name":"OwnableInvalidOwner","inputs":[{"name":"owner","type":"address","internalType":"address"}]},{"type":"error","name":"OwnableUnauthorizedAccount","inputs":[{"name":"account","type":"address","internalType":"address"}]}],"bytecode":{"object":"0x60a060405234801561000f575f5ffd5b50604051613a09380380613a098339818101604052810190610031919061024c565b335f73ffffffffffffffffffffffffffffffffffffffff168173ffffffffffffffffffffffffffffffffffffffff16036100a2575f6040517f1e4fbdf70000000000000000000000000000000000000000000000000000000081526004016100999190610299565b60405180910390fd5b6100b18161012d60201b60201c565b508160015f6101000a81548173ffffffffffffffffffffffffffffffffffffffff021916908373ffffffffffffffffffffffffffffffffffffffff1602179055508073ffffffffffffffffffffffffffffffffffffffff1660808173ffffffffffffffffffffffffffffffffffffffff168152505050506102b2565b5f5f5f9054906101000a900473ffffffffffffffffffffffffffffffffffffffff169050815f5f6101000a81548173ffffffffffffffffffffffffffffffffffffffff021916908373ffffffffffffffffffffffffffffffffffffffff1602179055508173ffffffffffffffffffffffffffffffffffffffff168173ffffffffffffffffffffffffffffffffffffffff167f8be0079c531659141344cd1fd0a4f28419497f9722a3daafe3b4186f6b6457e060405160405180910390a35050565b5f5ffd5b5f73ffffffffffffffffffffffffffffffffffffffff82169050919050565b5f61021b826101f2565b9050919050565b61022b81610211565b8114610235575f5ffd5b50565b5f8151905061024681610222565b92915050565b5f5f60408385031215610262576102616101ee565b5b5f61026f85828601610238565b925050602061028085828601610238565b9150509250929050565b61029381610211565b82525050565b5f6020820190506102ac5f83018461028a565b92915050565b6080516137236102e65f395f818161056801528181610a3301528181610f360152818161194a0152611fe301526137235ff3fe608060405234801561000f575f5ffd5b5060043610610135575f3560e01c80638317f65c116100b6578063c815729d1161007a578063c815729d14610345578063e1b251e614610361578063ecb22fb514610394578063ef706adf146103b0578063f2fde38b146103cc578063fbb1e497146103e857610135565b80638317f65c1461028857806383a221ec146102a65780638a72ea6a146102d65780638da5cb5b1461030b57806393b778d41461032957610135565b80633450f56d116100fd5780633450f56d146101f65780633e413bee14610214578063441c463d1461023257806364e574c214610262578063715018a61461027e57610135565b80631115c24d146101395780631561e642146101575780631a3f68271461017357806320e33db8146101aa578063305a67a8146101da575b5f5ffd5b610141610418565b60405161014e91906123ba565b60405180910390f35b610171600480360381019061016c9190612401565b61041e565b005b61018d6004803603810190610188919061243f565b61082b565b6040516101a1989796959493929190612536565b60405180910390f35b6101c460048036038101906101bf9190612401565b6108a7565b6040516101d191906123ba565b60405180910390f35b6101f460048036038101906101ef919061243f565b6108d2565b005b6101fe610a2b565b60405161020b91906123ba565b60405180910390f35b61021c610a31565b604051610229919061260d565b60405180910390f35b61024c60048036038101906102479190612626565b610a55565b60405161025991906123ba565b60405180910390f35b61027c6004803603810190610277919061269d565b610db3565b005b6102866111b6565b005b6102906111c9565b60405161029d9190612721565b60405180910390f35b6102c060048036038101906102bb919061243f565b6111ee565b6040516102cd91906127f1565b60405180910390f35b6102f060048036038101906102eb919061243f565b6113f4565b60405161030296959493929190612811565b60405180910390f35b610313611457565b6040516103209190612870565b60405180910390f35b610343600480360381019061033e919061243f565b61147e565b005b61035f600480360381019061035a919061243f565b611793565b005b61037b6004803603810190610376919061243f565b611c16565b60405161038b9493929190612889565b60405180910390f35b6103ae60048036038101906103a991906128f6565b611c6d565b005b6103ca60048036038101906103c5919061243f565b611ed6565b005b6103e660048036038101906103e19190612946565b612168565b005b61040260048036038101906103fd919061243f565b6121ec565b60405161040f91906127f1565b60405180910390f35b60065481565b5f60025f8481526020019081526020015f2090508060060160019054906101000a900460ff16610483576040517f08c379a000000000000000000000000000000000000000000000000000000000815260040161047a906129cb565b60405180910390fd5b5f82116104c5576040517f08c379a00000000000000000000000000000000000000000000000000000000081526004016104bc90612a33565b60405180910390fd5b806003015482111561050c576040517f08c379a000000000000000000000000000000000000000000000000000000000815260040161050390612a9b565b60405180910390fd5b5f81600401548361051d9190612ae6565b90508160050154811015610566576040517f08c379a000000000000000000000000000000000000000000000000000000000815260040161055d90612b71565b60405180910390fd5b7f000000000000000000000000000000000000000000000000000000000000000073ffffffffffffffffffffffffffffffffffffffff166323b872dd33845f015f9054906101000a900473ffffffffffffffffffffffffffffffffffffffff16846040518463ffffffff1660e01b81526004016105e593929190612b8f565b6020604051808303815f875af1158015610601573d5f5f3e3d5ffd5b505050506040513d601f19601f820116820180604052508101906106259190612bee565b610664576040517f08c379a000000000000000000000000000000000000000000000000000000000815260040161065b90612c63565b60405180910390fd5b60015f9054906101000a900473ffffffffffffffffffffffffffffffffffffffff1673ffffffffffffffffffffffffffffffffffffffff16634d47fddb303385600101548660020154886040518663ffffffff1660e01b81526004016106ce959493929190612cb4565b6020604051808303815f875af11580156106ea573d5f5f3e3d5ffd5b505050506040513d601f19601f8201168201806040525081019061070e9190612bee565b61074d576040517f08c379a000000000000000000000000000000000000000000000000000000000815260040161074490612d62565b60405180910390fd5b82826003015f8282546107609190612d80565b925050819055505f82600301540361078f575f8260060160016101000a81548160ff0219169083151502179055505b815f015f9054906101000a900473ffffffffffffffffffffffffffffffffffffffff1673ffffffffffffffffffffffffffffffffffffffff163373ffffffffffffffffffffffffffffffffffffffff16857f1d39e36e6fb8c75c0ab909608fb28fa35b2614f20e0d2bcb03dcdc9ada49ec0e85600101548660020154888760405161081d9493929190612db3565b60405180910390a450505050565b6002602052805f5260405f205f91509050805f015f9054906101000a900473ffffffffffffffffffffffffffffffffffffffff1690806001015490806002015490806003015490806004015490806005015490806006015f9054906101000a900460ff16908060060160019054906101000a900460ff16905088565b6007602052815f5260405f2081815481106108c0575f80fd5b905f5260205f20015f91509150505481565b5f60025f8381526020019081526020015f2090508060060160019054906101000a900460ff16610937576040517f08c379a000000000000000000000000000000000000000000000000000000000815260040161092e90612e40565b60405180910390fd5b3373ffffffffffffffffffffffffffffffffffffffff16815f015f9054906101000a900473ffffffffffffffffffffffffffffffffffffffff1673ffffffffffffffffffffffffffffffffffffffff16146109c7576040517f08c379a00000000000000000000000000000000000000000000000000000000081526004016109be90612ea8565b60405180910390fd5b5f8160060160016101000a81548160ff0219169083151502179055503373ffffffffffffffffffffffffffffffffffffffff16827f8e25282255ab31897df2b0456bb993ac7f84d376861aefd84901d2d63a7428a260405160405180910390a35050565b60035481565b7f000000000000000000000000000000000000000000000000000000000000000081565b5f5f8411610a98576040517f08c379a0000000000000000000000000000000000000000000000000000000008152600401610a8f90612a33565b60405180910390fd5b5f8311610ada576040517f08c379a0000000000000000000000000000000000000000000000000000000008152600401610ad190612f10565b60405180910390fd5b5f8211610b1c576040517f08c379a0000000000000000000000000000000000000000000000000000000008152600401610b1390612f9e565b60405180910390fd5b60015f9054906101000a900473ffffffffffffffffffffffffffffffffffffffff1673ffffffffffffffffffffffffffffffffffffffff16634d47fddb33308989896040518663ffffffff1660e01b8152600401610b7e959493929190612cb4565b6020604051808303815f875af1158015610b9a573d5f5f3e3d5ffd5b505050506040513d601f19601f82011682018060405250810190610bbe9190612bee565b610bfd576040517f08c379a0000000000000000000000000000000000000000000000000000000008152600401610bf490613006565b60405180910390fd5b5f60035f815480929190610c1090613024565b9190505590506040518061010001604052803373ffffffffffffffffffffffffffffffffffffffff1681526020018881526020018781526020018681526020018581526020018481526020015f5f811115610c6e57610c6d6124a9565b5b81526020016001151581525060025f8381526020019081526020015f205f820151815f015f6101000a81548173ffffffffffffffffffffffffffffffffffffffff021916908373ffffffffffffffffffffffffffffffffffffffff1602179055506020820151816001015560408201518160020155606082015181600301556080820151816004015560a0820151816005015560c0820151816006015f6101000a81548160ff02191690835f811115610d2a57610d296124a9565b5b021790555060e08201518160060160016101000a81548160ff021916908315150217905550905050863373ffffffffffffffffffffffffffffffffffffffff16827fa7d67e8b97aa38d4d0bc63b984b7055ba280cfe8b5f8df2d041027b3164bf1bb898989604051610d9e9392919061306b565b60405180910390a48091505095945050505050565b5f8311610df5576040517f08c379a0000000000000000000000000000000000000000000000000000000008152600401610dec90612a33565b60405180910390fd5b5f8211610e37576040517f08c379a0000000000000000000000000000000000000000000000000000000008152600401610e2e90612f10565b60405180910390fd5b5f8111610e79576040517f08c379a0000000000000000000000000000000000000000000000000000000008152600401610e70906130ea565b60405180910390fd5b5f60025f8681526020019081526020015f2090508060060160019054906101000a900460ff16610ede576040517f08c379a0000000000000000000000000000000000000000000000000000000008152600401610ed5906129cb565b60405180910390fd5b8060030154841115610f25576040517f08c379a0000000000000000000000000000000000000000000000000000000008152600401610f1c90613152565b60405180910390fd5b5f8385610f329190612ae6565b90507f000000000000000000000000000000000000000000000000000000000000000073ffffffffffffffffffffffffffffffffffffffff166323b872dd3330846040518463ffffffff1660e01b8152600401610f9193929190612b8f565b6020604051808303815f875af1158015610fad573d5f5f3e3d5ffd5b505050506040513d601f19601f82011682018060405250810190610fd19190612bee565b611010576040517f08c379a000000000000000000000000000000000000000000000000000000000815260040161100790612c63565b60405180910390fd5b5f60065f81548092919061102390613024565b9190505590506040518060c001604052803373ffffffffffffffffffffffffffffffffffffffff168152602001888152602001878152602001868152602001854261106e9190613170565b81526020016001151581525060055f8381526020019081526020015f205f820151815f015f6101000a81548173ffffffffffffffffffffffffffffffffffffffff021916908373ffffffffffffffffffffffffffffffffffffffff1602179055506020820151816001015560408201518160020155606082015181600301556080820151816004015560a0820151816005015f6101000a81548160ff02191690831515021790555090505060075f8881526020019081526020015f2081908060018154018082558091505060019003905f5260205f20015f90919091909150553373ffffffffffffffffffffffffffffffffffffffff1681887fe40c243b607c6cdc3569cbfd2b09b2e8416b69706cee0efa7184dc62a2e0542c898989426111969190613170565b6040516111a59392919061306b565b60405180910390a450505050505050565b6111be612253565b6111c75f6122da565b565b60015f9054906101000a900473ffffffffffffffffffffffffffffffffffffffff1681565b60605f60075f8481526020019081526020015f2080548060200260200160405190810160405280929190818152602001828054801561124a57602002820191905f5260205f20905b815481526020019060010190808311611236575b505050505090505f815167ffffffffffffffff81111561126d5761126c6131a3565b5b60405190808252806020026020018201604052801561129b5781602001602082028036833780820191505090505b5090505f5f90505f5f90505b8351811015611346575f8482815181106112c4576112c36131d0565b5b602002602001015190505f60055f8381526020019081526020015f209050806005015f9054906101000a900460ff168015611303575080600401544211155b15611337578185858151811061131c5761131b6131d0565b5b602002602001018181525050838061133390613024565b9450505b505080806001019150506112a7565b505f8167ffffffffffffffff811115611362576113616131a3565b5b6040519080825280602002602001820160405280156113905781602001602082028036833780820191505090505b5090505f5f90505b828110156113e7578381815181106113b3576113b26131d0565b5b60200260200101518282815181106113ce576113cd6131d0565b5b6020026020010181815250508080600101915050611398565b5080945050505050919050565b6005602052805f5260405f205f91509050805f015f9054906101000a900473ffffffffffffffffffffffffffffffffffffffff1690806001015490806002015490806003015490806004015490806005015f9054906101000a900460ff16905086565b5f5f5f9054906101000a900473ffffffffffffffffffffffffffffffffffffffff16905090565b5f60045f8381526020019081526020015f209050806003015f9054906101000a900460ff166114e2576040517f08c379a00000000000000000000000000000000000000000000000000000000081526004016114d990613247565b60405180910390fd5b806002015460015f9054906101000a900473ffffffffffffffffffffffffffffffffffffffff1673ffffffffffffffffffffffffffffffffffffffff16638536208d33855f6040518463ffffffff1660e01b81526004016115459392919061329e565b602060405180830381865afa158015611560573d5f5f3e3d5ffd5b505050506040513d601f19601f8201168201806040525081019061158491906132e7565b146115c4576040517f08c379a00000000000000000000000000000000000000000000000000000000081526004016115bb9061335c565b60405180910390fd5b60015f9054906101000a900473ffffffffffffffffffffffffffffffffffffffff1673ffffffffffffffffffffffffffffffffffffffff16634d47fddb3330855f86600201546040518663ffffffff1660e01b815260040161162a95949392919061337a565b6020604051808303815f875af1158015611646573d5f5f3e3d5ffd5b505050506040513d601f19601f8201168201806040525081019061166a9190612bee565b50805f015f9054906101000a900473ffffffffffffffffffffffffffffffffffffffff1673ffffffffffffffffffffffffffffffffffffffff166323b872dd3033856040518463ffffffff1660e01b81526004016116ca93929190612b8f565b5f604051808303815f87803b1580156116e1575f5ffd5b505af11580156116f3573d5f5f3e3d5ffd5b505050505f816003015f6101000a81548160ff0219169083151502179055503373ffffffffffffffffffffffffffffffffffffffff1682825f015f9054906101000a900473ffffffffffffffffffffffffffffffffffffffff1673ffffffffffffffffffffffffffffffffffffffff167f23cf3f7471660f1ad659a576911ba92d792ca4e9717dfdace5793c91e64e3a8060405160405180910390a45050565b5f60055f8381526020019081526020015f209050806005015f9054906101000a900460ff166117f7576040517f08c379a00000000000000000000000000000000000000000000000000000000081526004016117ee90613428565b60405180910390fd5b806004015442111561183e576040517f08c379a000000000000000000000000000000000000000000000000000000000815260040161183590613490565b60405180910390fd5b5f60025f836001015481526020019081526020015f209050805f015f9054906101000a900473ffffffffffffffffffffffffffffffffffffffff1673ffffffffffffffffffffffffffffffffffffffff163373ffffffffffffffffffffffffffffffffffffffff16146118e6576040517f08c379a00000000000000000000000000000000000000000000000000000000081526004016118dd90612ea8565b60405180910390fd5b806003015482600201541115611931576040517f08c379a0000000000000000000000000000000000000000000000000000000008152600401611928906134f8565b60405180910390fd5b5f826003015483600201546119469190612ae6565b90507f000000000000000000000000000000000000000000000000000000000000000073ffffffffffffffffffffffffffffffffffffffff1663a9059cbb33836040518363ffffffff1660e01b81526004016119a3929190613516565b6020604051808303815f875af11580156119bf573d5f5f3e3d5ffd5b505050506040513d601f19601f820116820180604052508101906119e39190612bee565b611a22576040517f08c379a0000000000000000000000000000000000000000000000000000000008152600401611a1990612c63565b60405180910390fd5b60015f9054906101000a900473ffffffffffffffffffffffffffffffffffffffff1673ffffffffffffffffffffffffffffffffffffffff16634d47fddb30855f015f9054906101000a900473ffffffffffffffffffffffffffffffffffffffff168560010154866002015488600201546040518663ffffffff1660e01b8152600401611ab2959493929190612cb4565b6020604051808303815f875af1158015611ace573d5f5f3e3d5ffd5b505050506040513d601f19601f82011682018060405250810190611af29190612bee565b611b31576040517f08c379a0000000000000000000000000000000000000000000000000000000008152600401611b2890612d62565b60405180910390fd5b8260020154826003015f828254611b489190612d80565b925050819055505f826003015403611b77575f8260060160016101000a81548160ff0219169083151502179055505b5f836005015f6101000a81548160ff0219169083151502179055503373ffffffffffffffffffffffffffffffffffffffff168484600101547fdaf07891f5285c11e75387020299910ed108c13f1b6a0650baeb919d53b50c45865f015f9054906101000a900473ffffffffffffffffffffffffffffffffffffffff16876002015486604051611c089392919061353d565b60405180910390a450505050565b6004602052805f5260405f205f91509050805f015f9054906101000a900473ffffffffffffffffffffffffffffffffffffffff1690806001015490806002015490806003015f9054906101000a900460ff16905084565b5f8111611caf576040517f08c379a0000000000000000000000000000000000000000000000000000000008152600401611ca6906135bc565b60405180910390fd5b8273ffffffffffffffffffffffffffffffffffffffff166323b872dd3330856040518463ffffffff1660e01b8152600401611cec93929190612b8f565b5f604051808303815f87803b158015611d03575f5ffd5b505af1158015611d15573d5f5f3e3d5ffd5b5050505060405180608001604052808473ffffffffffffffffffffffffffffffffffffffff1681526020018381526020018281526020016001151581525060045f8481526020019081526020015f205f820151815f015f6101000a81548173ffffffffffffffffffffffffffffffffffffffff021916908373ffffffffffffffffffffffffffffffffffffffff16021790555060208201518160010155604082015181600201556060820151816003015f6101000a81548160ff02191690831515021790555090505060015f9054906101000a900473ffffffffffffffffffffffffffffffffffffffff1673ffffffffffffffffffffffffffffffffffffffff1663a647e8ec33845f856040518563ffffffff1660e01b8152600401611e3e94939291906135da565b5f604051808303815f87803b158015611e55575f5ffd5b505af1158015611e67573d5f5f3e3d5ffd5b505050503373ffffffffffffffffffffffffffffffffffffffff16828473ffffffffffffffffffffffffffffffffffffffff167fddeda9c039a8dbdaa7235a6d766ae34a71e9efcef2f480dc9c3dfe6bc43a301484604051611ec991906123ba565b60405180910390a4505050565b5f60055f8381526020019081526020015f209050806005015f9054906101000a900460ff16611f3a576040517f08c379a0000000000000000000000000000000000000000000000000000000008152600401611f3190613428565b60405180910390fd5b805f015f9054906101000a900473ffffffffffffffffffffffffffffffffffffffff1673ffffffffffffffffffffffffffffffffffffffff163373ffffffffffffffffffffffffffffffffffffffff1614611fca576040517f08c379a0000000000000000000000000000000000000000000000000000000008152600401611fc190613667565b60405180910390fd5b5f81600301548260020154611fdf9190612ae6565b90507f000000000000000000000000000000000000000000000000000000000000000073ffffffffffffffffffffffffffffffffffffffff1663a9059cbb835f015f9054906101000a900473ffffffffffffffffffffffffffffffffffffffff16836040518363ffffffff1660e01b815260040161205e929190613516565b6020604051808303815f875af115801561207a573d5f5f3e3d5ffd5b505050506040513d601f19601f8201168201806040525081019061209e9190612bee565b6120dd576040517f08c379a00000000000000000000000000000000000000000000000000000000081526004016120d4906136cf565b60405180910390fd5b5f826005015f6101000a81548160ff021916908315150217905550815f015f9054906101000a900473ffffffffffffffffffffffffffffffffffffffff1673ffffffffffffffffffffffffffffffffffffffff168383600101547f5b166b4d0498ff8c4719999cb6154c5d197e6f020f9fbfcf9d347f84576cfab760405160405180910390a4505050565b612170612253565b5f73ffffffffffffffffffffffffffffffffffffffff168173ffffffffffffffffffffffffffffffffffffffff16036121e0575f6040517f1e4fbdf70000000000000000000000000000000000000000000000000000000081526004016121d79190612870565b60405180910390fd5b6121e9816122da565b50565b606060075f8381526020019081526020015f2080548060200260200160405190810160405280929190818152602001828054801561224757602002820191905f5260205f20905b815481526020019060010190808311612233575b50505050509050919050565b61225b61239b565b73ffffffffffffffffffffffffffffffffffffffff16612279611457565b73ffffffffffffffffffffffffffffffffffffffff16146122d85761229c61239b565b6040517f118cdaa70000000000000000000000000000000000000000000000000000000081526004016122cf9190612870565b60405180910390fd5b565b5f5f5f9054906101000a900473ffffffffffffffffffffffffffffffffffffffff169050815f5f6101000a81548173ffffffffffffffffffffffffffffffffffffffff021916908373ffffffffffffffffffffffffffffffffffffffff1602179055508173ffffffffffffffffffffffffffffffffffffffff168173ffffffffffffffffffffffffffffffffffffffff167f8be0079c531659141344cd1fd0a4f28419497f9722a3daafe3b4186f6b6457e060405160405180910390a35050565b5f33905090565b5f819050919050565b6123b4816123a2565b82525050565b5f6020820190506123cd5f8301846123ab565b92915050565b5f5ffd5b6123e0816123a2565b81146123ea575f5ffd5b50565b5f813590506123fb816123d7565b92915050565b5f5f60408385031215612417576124166123d3565b5b5f612424858286016123ed565b9250506020612435858286016123ed565b9150509250929050565b5f60208284031215612454576124536123d3565b5b5f612461848285016123ed565b91505092915050565b5f73ffffffffffffffffffffffffffffffffffffffff82169050919050565b5f6124938261246a565b9050919050565b6124a381612489565b82525050565b7f4e487b71000000000000000000000000000000000000000000000000000000005f52602160045260245ffd5b600181106124e7576124e66124a9565b5b50565b5f8190506124f7826124d6565b919050565b5f612506826124ea565b9050919050565b612516816124fc565b82525050565b5f8115159050919050565b6125308161251c565b82525050565b5f6101008201905061254a5f83018b61249a565b612557602083018a6123ab565b61256460408301896123ab565b61257160608301886123ab565b61257e60808301876123ab565b61258b60a08301866123ab565b61259860c083018561250d565b6125a560e0830184612527565b9998505050505050505050565b5f819050919050565b5f6125d56125d06125cb8461246a565b6125b2565b61246a565b9050919050565b5f6125e6826125bb565b9050919050565b5f6125f7826125dc565b9050919050565b612607816125ed565b82525050565b5f6020820190506126205f8301846125fe565b92915050565b5f5f5f5f5f60a0868803121561263f5761263e6123d3565b5b5f61264c888289016123ed565b955050602061265d888289016123ed565b945050604061266e888289016123ed565b935050606061267f888289016123ed565b9250506080612690888289016123ed565b9150509295509295909350565b5f5f5f5f608085870312156126b5576126b46123d3565b5b5f6126c2878288016123ed565b94505060206126d3878288016123ed565b93505060406126e4878288016123ed565b92505060606126f5878288016123ed565b91505092959194509250565b5f61270b826125dc565b9050919050565b61271b81612701565b82525050565b5f6020820190506127345f830184612712565b92915050565b5f81519050919050565b5f82825260208201905092915050565b5f819050602082019050919050565b61276c816123a2565b82525050565b5f61277d8383612763565b60208301905092915050565b5f602082019050919050565b5f61279f8261273a565b6127a98185612744565b93506127b483612754565b805f5b838110156127e45781516127cb8882612772565b97506127d683612789565b9250506001810190506127b7565b5085935050505092915050565b5f6020820190508181035f8301526128098184612795565b905092915050565b5f60c0820190506128245f83018961249a565b61283160208301886123ab565b61283e60408301876123ab565b61284b60608301866123ab565b61285860808301856123ab565b61286560a0830184612527565b979650505050505050565b5f6020820190506128835f83018461249a565b92915050565b5f60808201905061289c5f83018761249a565b6128a960208301866123ab565b6128b660408301856123ab565b6128c36060830184612527565b95945050505050565b6128d581612489565b81146128df575f5ffd5b50565b5f813590506128f0816128cc565b92915050565b5f5f5f6060848603121561290d5761290c6123d3565b5b5f61291a868287016128e2565b935050602061292b868287016123ed565b925050604061293c868287016123ed565b9150509250925092565b5f6020828403121561295b5761295a6123d3565b5b5f612968848285016128e2565b91505092915050565b5f82825260208201905092915050565b7f4c697374696e67206e6f742061637469766500000000000000000000000000005f82015250565b5f6129b5601283612971565b91506129c082612981565b602082019050919050565b5f6020820190508181035f8301526129e2816129a9565b9050919050565b7f416d6f756e74206d7573742062652067726561746572207468616e20300000005f82015250565b5f612a1d601d83612971565b9150612a28826129e9565b602082019050919050565b5f6020820190508181035f830152612a4a81612a11565b9050919050565b7f496e73756666696369656e74206c697374656420616d6f756e740000000000005f82015250565b5f612a85601a83612971565b9150612a9082612a51565b602082019050919050565b5f6020820190508181035f830152612ab281612a79565b9050919050565b7f4e487b71000000000000000000000000000000000000000000000000000000005f52601160045260245ffd5b5f612af0826123a2565b9150612afb836123a2565b9250828202612b09816123a2565b91508282048414831517612b2057612b1f612ab9565b5b5092915050565b7f42656c6f77206d696e696d756d20707572636861736520616d6f756e740000005f82015250565b5f612b5b601d83612971565b9150612b6682612b27565b602082019050919050565b5f6020820190508181035f830152612b8881612b4f565b9050919050565b5f606082019050612ba25f83018661249a565b612baf602083018561249a565b612bbc60408301846123ab565b949350505050565b612bcd8161251c565b8114612bd7575f5ffd5b50565b5f81519050612be881612bc4565b92915050565b5f60208284031215612c0357612c026123d3565b5b5f612c1084828501612bda565b91505092915050565b7f55534443207472616e73666572206661696c65640000000000000000000000005f82015250565b5f612c4d601483612971565b9150612c5882612c19565b602082019050919050565b5f6020820190508181035f830152612c7a81612c41565b9050919050565b5f82825260208201905092915050565b50565b5f612c9f5f83612c81565b9150612caa82612c91565b5f82019050919050565b5f60c082019050612cc75f83018861249a565b612cd4602083018761249a565b612ce160408301866123ab565b612cee60608301856123ab565b612cfb60808301846123ab565b81810360a0830152612d0c81612c94565b90509695505050505050565b7f467261676d656e74207472616e73666572206661696c656400000000000000005f82015250565b5f612d4c601883612971565b9150612d5782612d18565b602082019050919050565b5f6020820190508181035f830152612d7981612d40565b9050919050565b5f612d8a826123a2565b9150612d95836123a2565b9250828203905081811115612dad57612dac612ab9565b5b92915050565b5f608082019050612dc65f8301876123ab565b612dd360208301866123ab565b612de060408301856123ab565b612ded60608301846123ab565b95945050505050565b7f4e6f7420616374697665000000000000000000000000000000000000000000005f82015250565b5f612e2a600a83612971565b9150612e3582612df6565b602082019050919050565b5f6020820190508181035f830152612e5781612e1e565b9050919050565b7f4e6f742073656c6c6572000000000000000000000000000000000000000000005f82015250565b5f612e92600a83612971565b9150612e9d82612e5e565b602082019050919050565b5f6020820190508181035f830152612ebf81612e86565b9050919050565b7f5072696365206d7573742062652067726561746572207468616e2030000000005f82015250565b5f612efa601c83612971565b9150612f0582612ec6565b602082019050919050565b5f6020820190508181035f830152612f2781612eee565b9050919050565b7f4d696e207075726368617365206d7573742062652067726561746572207468615f8201527f6e20300000000000000000000000000000000000000000000000000000000000602082015250565b5f612f88602383612971565b9150612f9382612f2e565b604082019050919050565b5f6020820190508181035f830152612fb581612f7c565b9050919050565b7f5472616e73666572206661696c656400000000000000000000000000000000005f82015250565b5f612ff0600f83612971565b9150612ffb82612fbc565b602082019050919050565b5f6020820190508181035f83015261301d81612fe4565b9050919050565b5f61302e826123a2565b91507fffffffffffffffffffffffffffffffffffffffffffffffffffffffffffffffff82036130605761305f612ab9565b5b600182019050919050565b5f60608201905061307e5f8301866123ab565b61308b60208301856123ab565b61309860408301846123ab565b949350505050565b7f4475726174696f6e206d7573742062652067726561746572207468616e2030005f82015250565b5f6130d4601f83612971565b91506130df826130a0565b602082019050919050565b5f6020820190508181035f830152613101816130c8565b9050919050565b7f416d6f756e742065786365656473206c697374696e67000000000000000000005f82015250565b5f61313c601683612971565b915061314782613108565b602082019050919050565b5f6020820190508181035f83015261316981613130565b9050919050565b5f61317a826123a2565b9150613185836123a2565b925082820190508082111561319d5761319c612ab9565b5b92915050565b7f4e487b71000000000000000000000000000000000000000000000000000000005f52604160045260245ffd5b7f4e487b71000000000000000000000000000000000000000000000000000000005f52603260045260245ffd5b7f4e6f7420777261707065640000000000000000000000000000000000000000005f82015250565b5f613231600b83612971565b915061323c826131fd565b602082019050919050565b5f6020820190508181035f83015261325e81613225565b9050919050565b5f819050919050565b5f61328861328361327e84613265565b6125b2565b6123a2565b9050919050565b6132988161326e565b82525050565b5f6060820190506132b15f83018661249a565b6132be60208301856123ab565b6132cb604083018461328f565b949350505050565b5f815190506132e1816123d7565b92915050565b5f602082840312156132fc576132fb6123d3565b5b5f613309848285016132d3565b91505092915050565b7f4e6f742066756c6c206f776e65720000000000000000000000000000000000005f82015250565b5f613346600e83612971565b915061335182613312565b602082019050919050565b5f6020820190508181035f8301526133738161333a565b9050919050565b5f60c08201905061338d5f83018861249a565b61339a602083018761249a565b6133a760408301866123ab565b6133b4606083018561328f565b6133c160808301846123ab565b81810360a08301526133d281612c94565b90509695505050505050565b7f4f66666572206e6f7420616374697665000000000000000000000000000000005f82015250565b5f613412601083612971565b915061341d826133de565b602082019050919050565b5f6020820190508181035f83015261343f81613406565b9050919050565b7f4f666665722065787069726564000000000000000000000000000000000000005f82015250565b5f61347a600d83612971565b915061348582613446565b602082019050919050565b5f6020820190508181035f8301526134a78161346e565b9050919050565b7f496e73756666696369656e74206c697374696e6720616d6f756e7400000000005f82015250565b5f6134e2601b83612971565b91506134ed826134ae565b602082019050919050565b5f6020820190508181035f83015261350f816134d6565b9050919050565b5f6040820190506135295f83018561249a565b61353660208301846123ab565b9392505050565b5f6060820190506135505f83018661249a565b61355d60208301856123ab565b61356a60408301846123ab565b949350505050565b7f496e76616c696420667261676d656e747320616d6f756e7400000000000000005f82015250565b5f6135a6601883612971565b91506135b182613572565b602082019050919050565b5f6020820190508181035f8301526135d38161359a565b9050919050565b5f6080820190506135ed5f83018761249a565b6135fa60208301866123ab565b613607604083018561328f565b61361460608301846123ab565b95945050505050565b7f4e6f7420627579657200000000000000000000000000000000000000000000005f82015250565b5f613651600983612971565b915061365c8261361d565b602082019050919050565b5f6020820190508181035f83015261367e81613645565b9050919050565b7f5553444320726566756e64206661696c656400000000000000000000000000005f82015250565b5f6136b9601283612971565b91506136c482613685565b602082019050919050565b5f6020820190508181035f8301526136e6816136ad565b905091905056fea26469706673582212205337ec116986994205311eccc848ce99c162ce3a37913afa47034ffae01ffa9364736f6c634300081c0033","linkReferences":{}},"methodIdentifiers":{"acceptOffer(uint256)":"c815729d","buyERC6960(uint256,uint256)":"1561e642","cancelListing(uint256)":"305a67a8","cancelOffer(uint256)":"ef706adf","dlt()":"8317f65c","erc6960Count()":"3450f56d","erc6960Listings(uint256)":"1a3f6827","getActiveOffers(uint256)":"83a221ec","getListingOffers(uint256)":"fbb1e497","listERC6960(uint256,uint256,uint256,uint256,uint256)":"441c463d","listingOffers(uint256,uint256)":"20e33db8","makeOffer(uint256,uint256,uint256,uint256)":"64e574c2","offerCount()":"1115c24d","offers(uint256)":"8a72ea6a","owner()":"8da5cb5b","redeemERC721(uint256)":"93b778d4","renounceOwnership()":"715018a6","transferOwnership(address)":"f2fde38b","usdc()":"3e413bee","wrapERC721(address,uint256,uint256)":"ecb22fb5","wrappedNFTs(uint256)":"e1b251e6"},"id":29}