{"abi":[{"type":"constructor","inputs":[],"stateMutability":"nonpayable"},{"type":"function","name":"allowance","inputs":[{"name":"owner","type":"address","internalType":"address"},{"name":"operator","type":"address","internalType":"address"},{"name":"mainId","type":"uint256","internalType":"uint256"},{"name":"subId","type":"uint256","internalType":"uint256"}],"outputs":[{"name":"","type":"uint256","internalType":"uint256"}],"stateMutability":"view"},{"type":"function","name":"approve","inputs":[{"name":"operator","type":"address","internalType":"address"},{"name":"mainId","type":"uint256","internalType":"uint256"},{"name":"subId","type":"uint256","internalType":"uint256"},{"name":"amount","type":"uint256","internalType":"uint256"}],"outputs":[{"name":"","type":"bool","internalType":"bool"}],"stateMutability":"nonpayable"},{"type":"function","name":"balanceOfBatch","inputs":[{"name":"accounts","type":"address[]","internalType":"address[]"},{"name":"mainIds","type":"uint256[]","internalType":"uint256[]"},{"name":"subIds","type":"uint256[]","internalType":"uint256[]"}],"outputs":[{"name":"","type":"uint256[]","internalType":"uint256[]"}],"stateMutability":"view"},{"type":"function","name":"isApprovedForAll","inputs":[{"name":"owner","type":"address","internalType":"address"},{"name":"operator","type":"address","internalType":"address"}],"outputs":[{"name":"","type":"bool","internalType":"bool"}],"stateMutability":"view"},{"type":"function","name":"mint","inputs":[{"name":"to","type":"address","internalType":"address"},{"name":"mainId","type":"uint256","internalType":"uint256"},{"name":"subId","type":"uint256","internalType":"uint256"},{"name":"amount","type":"uint256","internalType":"uint256"}],"outputs":[],"stateMutability":"nonpayable"},{"type":"function","name":"owner","inputs":[],"outputs":[{"name":"","type":"address","internalType":"address"}],"stateMutability":"view"},{"type":"function","name":"renounceOwnership","inputs":[],"outputs":[],"stateMutability":"nonpayable"},{"type":"function","name":"safeTransferFrom","inputs":[{"name":"sender","type":"address","internalType":"address"},{"name":"recipient","type":"address","internalType":"address"},{"name":"mainId","type":"uint256","internalType":"uint256"},{"name":"subId","type":"uint256","internalType":"uint256"},{"name":"amount","type":"uint256","internalType":"uint256"},{"name":"","type":"bytes","internalType":"bytes"}],"outputs":[{"name":"","type":"bool","internalType":"bool"}],"stateMutability":"nonpayable"},{"type":"function","name":"setApprovalForAll","inputs":[{"name":"operator","type":"address","internalType":"address"},{"name":"approved","type":"bool","internalType":"bool"}],"outputs":[],"stateMutability":"nonpayable"},{"type":"function","name":"subBalanceOf","inputs":[{"name":"account","type":"address","internalType":"address"},{"name":"mainId","type":"uint256","internalType":"uint256"},{"name":"subId","type":"uint256","internalType":"uint256"}],"outputs":[{"name":"","type":"uint256","internalType":"uint256"}],"stateMutability":"view"},{"type":"function","name":"transferOwnership","inputs":[{"name":"newOwner","type":"address","internalType":"address"}],"outputs":[],"stateMutability":"nonpayable"},{"type":"event","name":"Approval","inputs":[{"name":"owner","type":"address","indexed":true,"internalType":"address"},{"name":"operator","type":"address","indexed":true,"internalType":"address"},{"name":"mainId","type":"uint256","indexed":false,"internalType":"uint256"},{"name":"subId","type":"uint256","indexed":false,"internalType":"uint256"},{"name":"amount","type":"uint256","indexed":false,"internalType":"uint256"}],"anonymous":false},{"type":"event","name":"ApprovalForAll","inputs":[{"name":"owner","type":"address","indexed":true,"internalType":"address"},{"name":"operator","type":"address","indexed":true,"internalType":"address"},{"name":"approved","type":"bool","indexed":false,"internalType":"bool"}],"anonymous":false},{"type":"event","name":"OwnershipTransferred","inputs":[{"name":"previousOwner","type":"address","indexed":true,"internalType":"address"},{"name":"newOwner","type":"address","indexed":true,"internalType":"address"}],"anonymous":false},{"type":"event","name":"Transfer","inputs":[{"name":"sender","type":"address","indexed":true,"internalType":"address"},{"name":"recipient","type":"address","indexed":true,"internalType":"address"},{"name":"mainId","type":"uint256","indexed":true,"internalType":"uint256"},{"name":"subId","type":"uint256","indexed":false,"internalType":"uint256"},{"name":"amount","type":"uint256","indexed":false,"internalType":"uint256"}],"anonymous":false},{"type":"event","name":"TransferBatch","inputs":[{"name":"sender","type":"address","indexed":true,"internalType":"address"},{"name":"recipient","type":"address","indexed":true,"internalType":"address"},{"name":"mainIds","type":"uint256[]","indexed":false,"internalType":"uint256[]"},{"name":"subIds","type":"uint256[]","indexed":false,"internalType":"uint256[]"},{"name":"amounts","type":"uint256[]","indexed":false,"internalType":"uint256[]"}],"anonymous":false},{"type":"event","name":"URI","inputs":[{"name":"oldValue","type":"string","indexed":false,"internalType":"string"},{"name":"newValue","type":"string","indexed":false,"internalType":"string"},{"name":"mainId","type":"uint256","indexed":true,"internalType":"uint256"}],"anonymous":false},{"type":"error","name":"OwnableInvalidOwner","inputs":[{"name":"owner","type":"address","internalType":"address"}]},{"type":"error","name":"OwnableUnauthorizedAccount","inputs":[{"name":"account","type":"address","internalType":"address"}]}],"bytecode":{"object":"0x608060405234801561000f575f5ffd5b50335f73ffffffffffffffffffffffffffffffffffffffff168173ffffffffffffffffffffffffffffffffffffffff1603610081575f6040517f1e4fbdf70000000000000000000000000000000000000000000000000000000081526004016100789190610196565b60405180910390fd5b6100908161009660201b60201c565b506101af565b5f5f5f9054906101000a900473ffffffffffffffffffffffffffffffffffffffff169050815f5f6101000a81548173ffffffffffffffffffffffffffffffffffffffff021916908373ffffffffffffffffffffffffffffffffffffffff1602179055508173ffffffffffffffffffffffffffffffffffffffff168173ffffffffffffffffffffffffffffffffffffffff167f8be0079c531659141344cd1fd0a4f28419497f9722a3daafe3b4186f6b6457e060405160405180910390a35050565b5f73ffffffffffffffffffffffffffffffffffffffff82169050919050565b5f61018082610157565b9050919050565b61019081610176565b82525050565b5f6020820190506101a95f830184610187565b92915050565b6117c1806101bc5f395ff3fe608060405234801561000f575f5ffd5b50600436106100a7575f3560e01c80638536208d1161006f5780638536208d146101755780638da5cb5b146101a5578063a22cb465146101c3578063a647e8ec146101df578063e985e9c5146101fb578063f2fde38b1461022b576100a7565b8063443b63b9146100ab5780634d47fddb146100db5780634f4df4421461010b57806362b264171461013b578063715018a61461016b575b5f5ffd5b6100c560048036038101906100c09190610eea565b610247565b6040516100d29190610f5d565b60405180910390f35b6100f560048036038101906100f09190610fd7565b6102e9565b604051610102919061109b565b60405180910390f35b610125600480360381019061012091906110b4565b610635565b604051610132919061109b565b60405180910390f35b610155600480360381019061015091906111c2565b610746565b6040516101629190611329565b60405180910390f35b6101736108f0565b005b61018f600480360381019061018a9190611349565b610903565b60405161019c9190610f5d565b60405180910390f35b6101ad610969565b6040516101ba91906113a8565b60405180910390f35b6101dd60048036038101906101d891906113eb565b610990565b005b6101f960048036038101906101f491906110b4565b610a88565b005b61021560048036038101906102109190611429565b610bf4565b604051610222919061109b565b60405180910390f35b61024560048036038101906102409190611467565b610c82565b005b5f60035f8673ffffffffffffffffffffffffffffffffffffffff1673ffffffffffffffffffffffffffffffffffffffff1681526020019081526020015f205f8481526020019081526020015f205f8381526020019081526020015f205f8573ffffffffffffffffffffffffffffffffffffffff1673ffffffffffffffffffffffffffffffffffffffff1681526020019081526020015f20549050949350505050565b5f3373ffffffffffffffffffffffffffffffffffffffff168873ffffffffffffffffffffffffffffffffffffffff16148061032a57506103298833610bf4565b5b8061034057508361033d89338989610247565b10155b61037f576040517f08c379a0000000000000000000000000000000000000000000000000000000008152600401610376906114ec565b60405180910390fd5b8360015f8a73ffffffffffffffffffffffffffffffffffffffff1673ffffffffffffffffffffffffffffffffffffffff1681526020019081526020015f205f8881526020019081526020015f205f8781526020019081526020015f2054101561041d576040517f08c379a000000000000000000000000000000000000000000000000000000000815260040161041490611554565b60405180910390fd5b8360015f8a73ffffffffffffffffffffffffffffffffffffffff1673ffffffffffffffffffffffffffffffffffffffff1681526020019081526020015f205f8881526020019081526020015f205f8781526020019081526020015f205f828254610487919061159f565b925050819055508360015f8973ffffffffffffffffffffffffffffffffffffffff1673ffffffffffffffffffffffffffffffffffffffff1681526020019081526020015f205f8881526020019081526020015f205f8781526020019081526020015f205f8282546104f891906115d2565b925050819055508361050c89338989610247565b106105be578360035f8a73ffffffffffffffffffffffffffffffffffffffff1673ffffffffffffffffffffffffffffffffffffffff1681526020019081526020015f205f8881526020019081526020015f205f8781526020019081526020015f205f3373ffffffffffffffffffffffffffffffffffffffff1673ffffffffffffffffffffffffffffffffffffffff1681526020019081526020015f205f8282546105b6919061159f565b925050819055505b858773ffffffffffffffffffffffffffffffffffffffff168973ffffffffffffffffffffffffffffffffffffffff167fc817d75deaa278e988c41cf549ef38fe195ab65e0e64cd67ba47f0d185690d58888860405161061e929190611605565b60405180910390a460019050979650505050505050565b5f8160035f3373ffffffffffffffffffffffffffffffffffffffff1673ffffffffffffffffffffffffffffffffffffffff1681526020019081526020015f205f8681526020019081526020015f205f8581526020019081526020015f205f8773ffffffffffffffffffffffffffffffffffffffff1673ffffffffffffffffffffffffffffffffffffffff1681526020019081526020015f20819055508473ffffffffffffffffffffffffffffffffffffffff163373ffffffffffffffffffffffffffffffffffffffff167f3a9c85c6b31f7a9d7fe1478f53e1be42e85db97ca30d1789cfef9196dbc472c98686866040516107329392919061162c565b60405180910390a360019050949350505050565b6060848490508787905014801561076257508282905085859050145b6107a1576040517f08c379a0000000000000000000000000000000000000000000000000000000008152600401610798906116ab565b60405180910390fd5b5f8787905067ffffffffffffffff8111156107bf576107be6116c9565b5b6040519080825280602002602001820160405280156107ed5781602001602082028036833780820191505090505b5090505f5f90505b888890508110156108e15760015f8a8a84818110610816576108156116f6565b5b905060200201602081019061082b9190611467565b73ffffffffffffffffffffffffffffffffffffffff1673ffffffffffffffffffffffffffffffffffffffff1681526020019081526020015f205f888884818110610878576108776116f6565b5b9050602002013581526020019081526020015f205f8686848181106108a05761089f6116f6565b5b9050602002013581526020019081526020015f20548282815181106108c8576108c76116f6565b5b60200260200101818152505080806001019150506107f5565b50809150509695505050505050565b6108f8610d06565b6109015f610d8d565b565b5f60015f8573ffffffffffffffffffffffffffffffffffffffff1673ffffffffffffffffffffffffffffffffffffffff1681526020019081526020015f205f8481526020019081526020015f205f8381526020019081526020015f205490509392505050565b5f5f5f9054906101000a900473ffffffffffffffffffffffffffffffffffffffff16905090565b8060025f3373ffffffffffffffffffffffffffffffffffffffff1673ffffffffffffffffffffffffffffffffffffffff1681526020019081526020015f205f8473ffffffffffffffffffffffffffffffffffffffff1673ffffffffffffffffffffffffffffffffffffffff1681526020019081526020015f205f6101000a81548160ff0219169083151502179055508173ffffffffffffffffffffffffffffffffffffffff163373ffffffffffffffffffffffffffffffffffffffff167f17307eab39ab6107e8899845ad3d59bd9653f200f220920489ca2b5937696c3183604051610a7c919061109b565b60405180910390a35050565b610a90610969565b73ffffffffffffffffffffffffffffffffffffffff163373ffffffffffffffffffffffffffffffffffffffff161480610ad65750610ad5610acf610969565b33610bf4565b5b610b15576040517f08c379a0000000000000000000000000000000000000000000000000000000008152600401610b0c9061176d565b60405180910390fd5b8060015f8673ffffffffffffffffffffffffffffffffffffffff1673ffffffffffffffffffffffffffffffffffffffff1681526020019081526020015f205f8581526020019081526020015f205f8481526020019081526020015f205f828254610b7f91906115d2565b92505081905550828473ffffffffffffffffffffffffffffffffffffffff165f73ffffffffffffffffffffffffffffffffffffffff167fc817d75deaa278e988c41cf549ef38fe195ab65e0e64cd67ba47f0d185690d588585604051610be6929190611605565b60405180910390a450505050565b5f60025f8473ffffffffffffffffffffffffffffffffffffffff1673ffffffffffffffffffffffffffffffffffffffff1681526020019081526020015f205f8373ffffffffffffffffffffffffffffffffffffffff1673ffffffffffffffffffffffffffffffffffffffff1681526020019081526020015f205f9054906101000a900460ff16905092915050565b610c8a610d06565b5f73ffffffffffffffffffffffffffffffffffffffff168173ffffffffffffffffffffffffffffffffffffffff1603610cfa575f6040517f1e4fbdf7000000000000000000000000000000000000000000000000000000008152600401610cf191906113a8565b60405180910390fd5b610d0381610d8d565b50565b610d0e610e4e565b73ffffffffffffffffffffffffffffffffffffffff16610d2c610969565b73ffffffffffffffffffffffffffffffffffffffff1614610d8b57610d4f610e4e565b6040517f118cdaa7000000000000000000000000000000000000000000000000000000008152600401610d8291906113a8565b60405180910390fd5b565b5f5f5f9054906101000a900473ffffffffffffffffffffffffffffffffffffffff169050815f5f6101000a81548173ffffffffffffffffffffffffffffffffffffffff021916908373ffffffffffffffffffffffffffffffffffffffff1602179055508173ffffffffffffffffffffffffffffffffffffffff168173ffffffffffffffffffffffffffffffffffffffff167f8be0079c531659141344cd1fd0a4f28419497f9722a3daafe3b4186f6b6457e060405160405180910390a35050565b5f33905090565b5f5ffd5b5f5ffd5b5f73ffffffffffffffffffffffffffffffffffffffff82169050919050565b5f610e8682610e5d565b9050919050565b610e9681610e7c565b8114610ea0575f5ffd5b50565b5f81359050610eb181610e8d565b92915050565b5f819050919050565b610ec981610eb7565b8114610ed3575f5ffd5b50565b5f81359050610ee481610ec0565b92915050565b5f5f5f5f60808587031215610f0257610f01610e55565b5b5f610f0f87828801610ea3565b9450506020610f2087828801610ea3565b9350506040610f3187828801610ed6565b9250506060610f4287828801610ed6565b91505092959194509250565b610f5781610eb7565b82525050565b5f602082019050610f705f830184610f4e565b92915050565b5f5ffd5b5f5ffd5b5f5ffd5b5f5f83601f840112610f9757610f96610f76565b5b8235905067ffffffffffffffff811115610fb457610fb3610f7a565b5b602083019150836001820283011115610fd057610fcf610f7e565b5b9250929050565b5f5f5f5f5f5f5f60c0888a031215610ff257610ff1610e55565b5b5f610fff8a828b01610ea3565b97505060206110108a828b01610ea3565b96505060406110218a828b01610ed6565b95505060606110328a828b01610ed6565b94505060806110438a828b01610ed6565b93505060a088013567ffffffffffffffff81111561106457611063610e59565b5b6110708a828b01610f82565b925092505092959891949750929550565b5f8115159050919050565b61109581611081565b82525050565b5f6020820190506110ae5f83018461108c565b92915050565b5f5f5f5f608085870312156110cc576110cb610e55565b5b5f6110d987828801610ea3565b94505060206110ea87828801610ed6565b93505060406110fb87828801610ed6565b925050606061110c87828801610ed6565b91505092959194509250565b5f5f83601f84011261112d5761112c610f76565b5b8235905067ffffffffffffffff81111561114a57611149610f7a565b5b60208301915083602082028301111561116657611165610f7e565b5b9250929050565b5f5f83601f84011261118257611181610f76565b5b8235905067ffffffffffffffff81111561119f5761119e610f7a565b5b6020830191508360208202830111156111bb576111ba610f7e565b5b9250929050565b5f5f5f5f5f5f606087890312156111dc576111db610e55565b5b5f87013567ffffffffffffffff8111156111f9576111f8610e59565b5b61120589828a01611118565b9650965050602087013567ffffffffffffffff81111561122857611227610e59565b5b61123489828a0161116d565b9450945050604087013567ffffffffffffffff81111561125757611256610e59565b5b61126389828a0161116d565b92509250509295509295509295565b5f81519050919050565b5f82825260208201905092915050565b5f819050602082019050919050565b6112a481610eb7565b82525050565b5f6112b5838361129b565b60208301905092915050565b5f602082019050919050565b5f6112d782611272565b6112e1818561127c565b93506112ec8361128c565b805f5b8381101561131c57815161130388826112aa565b975061130e836112c1565b9250506001810190506112ef565b5085935050505092915050565b5f6020820190508181035f83015261134181846112cd565b905092915050565b5f5f5f606084860312156113605761135f610e55565b5b5f61136d86828701610ea3565b935050602061137e86828701610ed6565b925050604061138f86828701610ed6565b9150509250925092565b6113a281610e7c565b82525050565b5f6020820190506113bb5f830184611399565b92915050565b6113ca81611081565b81146113d4575f5ffd5b50565b5f813590506113e5816113c1565b92915050565b5f5f6040838503121561140157611400610e55565b5b5f61140e85828601610ea3565b925050602061141f858286016113d7565b9150509250929050565b5f5f6040838503121561143f5761143e610e55565b5b5f61144c85828601610ea3565b925050602061145d85828601610ea3565b9150509250929050565b5f6020828403121561147c5761147b610e55565b5b5f61148984828501610ea3565b91505092915050565b5f82825260208201905092915050565b7f4e6f7420617070726f76656400000000000000000000000000000000000000005f82015250565b5f6114d6600c83611492565b91506114e1826114a2565b602082019050919050565b5f6020820190508181035f830152611503816114ca565b9050919050565b7f496e73756666696369656e742062616c616e63650000000000000000000000005f82015250565b5f61153e601483611492565b91506115498261150a565b602082019050919050565b5f6020820190508181035f83015261156b81611532565b9050919050565b7f4e487b71000000000000000000000000000000000000000000000000000000005f52601160045260245ffd5b5f6115a982610eb7565b91506115b483610eb7565b92508282039050818111156115cc576115cb611572565b5b92915050565b5f6115dc82610eb7565b91506115e783610eb7565b92508282019050808211156115ff576115fe611572565b5b92915050565b5f6040820190506116185f830185610f4e565b6116256020830184610f4e565b9392505050565b5f60608201905061163f5f830186610f4e565b61164c6020830185610f4e565b6116596040830184610f4e565b949350505050565b7f4c656e677468206d69736d6174636800000000000000000000000000000000005f82015250565b5f611695600f83611492565b91506116a082611661565b602082019050919050565b5f6020820190508181035f8301526116c281611689565b9050919050565b7f4e487b71000000000000000000000000000000000000000000000000000000005f52604160045260245ffd5b7f4e487b71000000000000000000000000000000000000000000000000000000005f52603260045260245ffd5b7f4e6f7420617574686f72697a65640000000000000000000000000000000000005f82015250565b5f611757600e83611492565b915061176282611723565b602082019050919050565b5f6020820190508181035f8301526117848161174b565b905091905056fea26469706673582212205072a64b4094229f54ad977c13397018a3757178c0e72aa03fa6b743603e587564736f6c634300081c0033","linkReferences":{}},"methodIdentifiers":{"allowance(address,address,uint256,uint256)":"443b63b9","approve(address,uint256,uint256,uint256)":"4f4df442","balanceOfBatch(address[],uint256[],uint256[])":"62b26417","isApprovedForAll(address,address)":"e985e9c5","mint(address,uint256,uint256,uint256)":"a647e8ec","owner()":"8da5cb5b","renounceOwnership()":"715018a6","safeTransferFrom(address,address,uint256,uint256,uint256,bytes)":"4d47fddb","setApprovalForAll(address,bool)":"a22cb465","subBalanceOf(address,uint256,uint256)":"8536208d","transferOwnership(address)":"f2fde38b"},"id":28}